:020000040000FA
:060000007CEF02F012008B
:0A000600010016050000AC00000028
:0400100008000000E4
:0C001400D9CFE6FFE1CFD9FF060EE126B0
:10002000800E946E030E936E810EE66EE66A3C0EB1
:10003000E66EF1EC01F0E552E552E552410EDE6E5E
:10004000DD6ADECF00F0DDCF01F0510E005C000E66
:10005000015815E2000EE66EE66A140EE66E050E15
:10006000E66EDECFE6FFDDCFE6FF7CD8006E060E43
:10007000E15E0050010EDE26000EDD22E2D781B0E7
:1000800066D081A0FED7010EDE6EDD6ADECF00F005
:10009000DDCF01F0110E005C000E015814E2140EC9
:1000A000E66EE66AC80EE66EE66ADECFE6FFDDCFF4
:1000B000E6FF58D8006E060EE15E0050010EDE2607
:1000C000000EDD22E3D7010EE66EC5D8E552E1D879
:1000D0000001C80E821901E1835106E0010EE66EAF
:1000E000BAD8E552D6D8F4D7010EDE6EDD6ADECF7F
:1000F00000F0DDCF01F0110E005C000E015814E29B
:10010000140EE66EE66AE66E050EE66EDECFE6FFDC
:10011000DDCFE6FF27D8006E060EE15E0050010E2F
:10012000DE26000EDD22E3D7010EE66E94D8E552FE
:10013000B0D8140E0001821902E1050E831906E001
:10014000010EE66E88D8E552A4D8F3D79CD797D78E
:10015000060EE15C02E2E16AE552E16EE552E7CFAC
:10016000D9FF1200D9CFE6FFE1CFD9FF020EE12679
:10017000DF6A010EDB6AFD0EDBCF01F0FE0EDBCF86
:1001800002F0010E015C000E025802E2000E01D0E6
:10019000010E006E160EE76E0018E8AE02D00034B5
:1001A00003D0E750D880005410E3400EE76EFD0EF8
:1001B000DBCF00F0FE0EDBCF01F0E7500012FD0EAA
:1001C00000C0DBFFFE0E01C0DBFFFB0EDBCF00F04B
:1001D000FC0EDBCF01F0060ED89001320032E804AD
:1001E000FBE13F0E0014DF6E3F0EE76EFB0EDBCF30
:1001F00000F0FC0EDBCF01F0E7500016016A010EA3
:1002000000C0DBFFACA2FED7FD0EDBCFE6FF55EC56
:1002100002F0E552ACA2FED7DFCFE6FF55EC02F0CC
:10022000E552ACA2FED7010EDBCFE6FF55EC02F0A3
:10023000E552ACA2FED7F90EDBCFE6FF55EC02F09B
:10024000E552020EE15C02E2E16AE552E16EE5523E
:10025000E7CFD9FF1200D9CFE6FFE1CFD9FFFE0EDD
:10026000DB504009E76EFE0EE7CFDBFFACA2FED706
:10027000400EE66E55EC02F0E552ACA2FED7FE0E43
:10028000DBCFE6FF55EC02F0E552E552E7CFD9FFB0
:100290001200D9CFE6FFE1CFD9FF020EE1269EAAD8
:1002A000FED736EC02F00001AC6FAD6B800B01E0C5
:1002B000AD699EAAFED736EC02F00001AE6FAF6BBF
:1002C000800B01E0AF699EAAFED736EC02F0000178
:1002D000B06FB16B800B01E0B1691F0EAC15AC6F54
:1002E000AD6BAEC002F0AFC003F0060ED890023680
:1002F0000336E804FBE13F0E0001B015046E056A09
:1003000002500410006E03500510016EACC0E9FFEE
:10031000ADC0EAFF010ED890E936EA36E806FBE107
:10032000800EE926000EEA2200C0EEFF01C0EDFFBC
:10033000020EE15C02E2E16AE552E16EE552E7CFCE
:04034000D9FF1200CF
:0C034400060EF66E000EF76E000EF86E4E
:1003500000010900F550A76F0900F550A86F03E1EF
:10036000A76701D03DD00900F550A26F0900F550F4
:10037000A36F0900F550A46F09000900F550E96E5C
:100380000900F550EA6E090009000900F550A56F53
:100390000900F550A66F09000900F6CFA9F0F7CFC4
:1003A000AAF0F8CFABF0A2C0F6FFA3C0F7FFA4C03D
:1003B000F8FF0001A55302E1A65307E00900F5503C
:1003C000EE6EA507F8E2A607F9D7A9C0F6FFAAC006
:1003D000F7FFABC0F8FF0001A707000EA85BBFD76F
:0203E000120009
:0E03E200D9CFE6FFDACFE6FFE1CFD9FFE2CFB9
:1003F000DAFFAC6AAB6AFD0EDBB0AC88DBA202D0E0
:10040000AC8CAB8CDBB4AC8EDBA602D0AB8801D05D
:10041000AB8ADBB8AC849E98DBBAAB86DBAC02D08F
:100420009D8A01D09D9A9E9ADBAE02D09D8801D014
:100430009D98FB0EDB50AF6EFB0EFC0EDBCF01F088
:1004400001C000F0016A0050B06EAC8AAB8E949C83
:10045000948EAC50100B04E0AC50800B01E1948CF6
:0C046000E552E5CFDAFFE7CFD9FF12002C
:04046C00D9CFE6FFFF
:10047000DACFE6FFE1CFD9FFE2CFDAFFE652F20EA4
:100480000001B417ABAC03D0B491ABB0B481ABB442
:10049000B485ABB2B487AE50DF6EDF50E552E552A3
:0A04A000E5CFDAFFE7CFD9FF120025
:0604AA00D9CFE6FFDACF16
:1004B000E6FFE1CFD9FFE2CFDAFFACAC04D0AC90DD
:1004C0000001B4B3AC80FD0EDB50AD6EE552E5CF5C
:0804D000DAFFE7CFD9FF1200AB
:0804D800000EF36E00EE00F0CF
:1004E000060E01D81200EA6002D0EE6AFCD7F35083
:0804F000E9601200EE6AFCD77E
:0804F80015EE00F025EE00F006
:10050000F86A079CA2EC01F08AEC02F00AEC00F019
:04051000FBD7120003
:020514001200D3
:080516000000000000000000DD
:020000040030CA
:0100010002FC
:0100020019E4
:010003001EDE
:010005008179
:010006008178
:00000001FF
