:020000040000FA
:0600000026EF02F01200E1
:020006000000F8
:08000800D9CFE6FFE1CFD9FFDB
:10001000060EE126800E946E030E936E810EE66E40
:10002000E66A3C0EE66EBAEC01F0E552E552E552A6
:10003000410EDE6EDD6ADECF00F0DDCF01F0510E45
:10004000005C000E015815E2000EE66EE66A140E22
:10005000E66E050EE66EDECFE6FFDDCFE6FF9ED84C
:10006000006E060EE15E0050010EDE26000EDD225F
:10007000E2D781B088D0410EDE6EDD6ADECF00F0BF
:10008000DDCF01F0510E005C000E015814E21C0E91
:10009000E66EE66A640EE66EE66ADECFE6FFDDCF68
:1000A000E6FF7CD8006E060EE15E0050010EDE26F3
:1000B000000EDD22E3D70F0EF36E020EF3CFDBFF4F
:1000C000030EDB6AD950020FE96EDACFEAFF000EA9
:1000D000D880EE54000EED5411E2300EE66E750E2F
:1000E000E66EE66AE66AD3D8E552E552E552E55295
:1000F000020EDB06030E01E2DB06E4D7410EDE6EE4
:10010000DD6ADECF00F0DDCF01F0510E005C000EA5
:10011000015815E21C0EE66EE66A140EE66E050E38
:10012000E66EDECFE6FFDDCFE6FF38D8006E060EC6
:10013000E15E0050010EDE26000EDD22E2D70F0E3A
:10014000F36E020EF3CFDBFF030EDB6AD950020F12
:10015000E96EDACFEAFF000ED880EE54000EED54BF
:1001600011E2300EE66E750EE66EE66AE66A8FD82C
:10017000E552E552E552E552020EDB06030E01E2BE
:10018000DB06E4D778D775D7060EE15C02E2E16AB8
:10019000E552E16EE552E7CFD9FF1200D9CFE6FF75
:1001A000E1CFD9FF020EE126DF6A010EDB6AFD0E08
:1001B000DBCF01F0FE0EDBCF02F0010E015C000E82
:1001C000025802E2000E01D0010E006E160EE76E1C
:1001D0000018E8AE02D0003403D0E750D8800054B5
:1001E00010E3400EE76EFD0EDBCF00F0FE0EDBCF1E
:1001F00001F0E7500012FD0E00C0DBFFFE0E01C053
:10020000DBFFFB0EDBCF00F0FC0EDBCF01F0060EB8
:10021000D89001320032E804FBE13F0E0014DF6E9B
:100220003F0EE76EFB0EDBCF00F0FC0EDBCF01F0E4
:10023000E7500016016A010E00C0DBFFACA2FED73A
:10024000FD0EDBCFE6FFFFEC01F0E552ACA2FED7DE
:10025000DFCFE6FFFFEC01F0E552ACA2FED7010EC6
:10026000DBCFE6FFFFEC01F0E552ACA2FED7F90EC2
:10027000DBCFE6FFFFEC01F0E552020EE15C02E2AB
:10028000E16AE552E16EE552E7CFD9FF1200D9CF1E
:10029000E6FFE1CFD9FFD950FB0FE96EFF0EDA2060
:1002A000EA6ED880000EEE54000EEE54000EEE54AE
:1002B000000EEE540CE2D950FB0FE96EFF0EDA206F
:1002C000EA6EEE06000EEE5AEE5AEE5AE4D7E5520A
:0602D000E7CFD9FF120088
:0A02D600060EF66E000EF76E000E25
:1002E000F86E00010900F550856F0900F550866F22
:1002F00003E1856701D03DD00900F550806F09000A
:10030000F550816F0900F550826F09000900F55022
:10031000E96E0900F550EA6E090009000900F55080
:10032000836F0900F550846F09000900F6CF87F04C
:10033000F7CF88F0F8CF89F080C0F6FF81C0F7FFD3
:1003400082C0F8FF0001835302E1845307E00900F3
:10035000F550EE6E8307F8E28407F9D787C0F6FF01
:1003600088C0F7FF89C0F8FF00018507000E865B93
:04037000BFD71200E1
:0C037400D9CFE6FFDACFE6FFE1CFD9FFDA
:10038000E2CFDAFFAC6AAB6AFD0EDBB0AC88DBA271
:1003900002D0AC8CAB8CDBB4AC8EDBA602D0AB88CD
:1003A00001D0AB8ADBB8AC849E98DBBAAB86DBAC01
:1003B00002D09D8A01D09D9A9E9ADBAE02D09D8884
:1003C00001D09D98FB0EDB50AF6EFB0EFC0EDBCF19
:1003D00001F001C000F0016A0050B06EAC8AAB8E33
:1003E000949C948EAC50100B04E0AC50800B01E157
:0E03F000948CE552E5CFDAFFE7CFD9FF12007B
:0203FE00D9CF55
:10040000E6FFDACFE6FFE1CFD9FFE2CFDAFFACAC0F
:1004100004D0AC9000018AB3AC80FD0EDB50AD6E11
:0C042000E552E5CFDAFFE7CFD9FF12006C
:04042C00000EF36E5D
:1004300000EE00F0060E01D81200EA6002D0EE6A6B
:0C044000FCD7F350E9601200EE6AFCD714
:04044C0015EE00F0B9
:1004500025EE00F0F86A049C6BEC01F034EC02F03D
:0804600004EC00F0FBD71200D0
:02046800120080
:020000040030CA
:0100010002FC
:0100020019E4
:010003001EDE
:010005008179
:010006008178
:00000001FF
